{
  "contractName": "ProductStorage",
  "abi": [
    {
      "constant": true,
      "inputs": [
        {
          "name": "",
          "type": "uint256"
        }
      ],
      "name": "items",
      "outputs": [
        {
          "name": "name",
          "type": "string"
        },
        {
          "name": "price",
          "type": "uint256"
        }
      ],
      "payable": false,
      "stateMutability": "view",
      "type": "function"
    },
    {
      "constant": false,
      "inputs": [
        {
          "name": "name",
          "type": "string"
        },
        {
          "name": "price",
          "type": "uint256"
        }
      ],
      "name": "setProduct",
      "outputs": [],
      "payable": false,
      "stateMutability": "nonpayable",
      "type": "function"
    },
    {
      "constant": true,
      "inputs": [
        {
          "name": "index",
          "type": "uint256"
        }
      ],
      "name": "getProduct",
      "outputs": [
        {
          "name": "productName",
          "type": "string"
        },
        {
          "name": "proudctPrice",
          "type": "uint256"
        }
      ],
      "payable": false,
      "stateMutability": "view",
      "type": "function"
    }
  ],
  "bytecode": "0x608060405234801561001057600080fd5b5061045a806100206000396000f3006080604052600436106100565763ffffffff7c0100000000000000000000000000000000000000000000000000000000600035041663b9db15b4811461005b578063bfb231d2146100f2578063d3af52dc1461010a575b600080fd5b34801561006757600080fd5b50610073600435610167565b6040518080602001838152602001828103825284818151815260200191508051906020019080838360005b838110156100b657818101518382015260200161009e565b50505050905090810190601f1680156100e35780820380516001836020036101000a031916815260200191505b50935050505060405180910390f35b3480156100fe57600080fd5b50610073600435610250565b34801561011657600080fd5b506040805160206004803580820135601f810184900484028501840190955284845261016594369492936024939284019190819084018382808284375094975050933594506103229350505050565b005b60606000808381548110151561017957fe5b906000526020600020906002020160000160008481548110151561019957fe5b906000526020600020906002020160010154818054600181600116156101000203166002900480601f0160208091040260200160405190810160405280929190818152602001828054600181600116156101000203166002900480156102405780601f1061021557610100808354040283529160200191610240565b820191906000526020600020905b81548152906001019060200180831161022357829003601f168201915b5050505050915091509150915091565b600080548290811061025e57fe5b60009182526020918290206002918202018054604080516001831615610100027fffffffffffffffffffffffffffffffffffffffffffffffffffffffffffffffff0190921693909304601f8101859004850282018501909352828152909350918391908301828280156103125780601f106102e757610100808354040283529160200191610312565b820191906000526020600020905b8154815290600101906020018083116102f557829003601f168201915b5050505050908060010154905082565b60408051808201909152828152602080820183905260008054600181018083559180528351805192949360029092027f290decd9548b62a8d60345a988386fc84ba6bc95484008f6362f93160ef3e56301926103819284920190610393565b50602082015181600101555050505050565b828054600181600116156101000203166002900490600052602060002090601f016020900481019282601f106103d457805160ff1916838001178555610401565b82800160010185558215610401579182015b828111156104015782518255916020019190600101906103e6565b5061040d929150610411565b5090565b61042b91905b8082111561040d5760008155600101610417565b905600a165627a7a72305820b75752942e5367767d38994ec74bbeb36a8a9e4ab3e4183dd40fbc4c4f13f7a70029",
  "source": "pragma solidity ^0.4.24;\n\n\ncontract ProductStorage {\n\n    struct Product {\n        string name;\n        uint price;\n    }\n\n    Product[] public items;\n\n    function setProduct(string name, uint price) public {\n        items.push(Product(name, price));\n    }\n\n    function getProduct(uint index) public view returns (string productName, uint proudctPrice) {\n        return (items[index].name, items[index].price);\n    }\n}",
  "sourcePath": "/Users/jedsada/Documents/development/update-contraact-playground/contracts/ProductStorage.sol",
  "compiler": {
    "name": "solc",
    "version": "0.4.24+commit.e67f0147.Emscripten.clang"
  },
  "schemaVersion": "2.0.1",
  "updatedAt": "2018-10-01T05:05:25.423Z"
}