{
  "contractName": "ProductStorageState",
  "abi": [
    {
      "constant": true,
      "inputs": [],
      "name": "_product",
      "outputs": [
        {
          "name": "",
          "type": "address"
        }
      ],
      "payable": false,
      "stateMutability": "view",
      "type": "function"
    }
  ],
  "bytecode": "0x608060405234801561001057600080fd5b5060c68061001f6000396000f300608060405260043610603e5763ffffffff7c01000000000000000000000000000000000000000000000000000000006000350416632fb958fa81146043575b600080fd5b348015604e57600080fd5b506055607e565b6040805173ffffffffffffffffffffffffffffffffffffffff9092168252519081900360200190f35b60005473ffffffffffffffffffffffffffffffffffffffff16815600a165627a7a723058201dc4684cc7895e3b35cd8a1a60272774a9906c09a4e6a4ba91d643d3e21b7e750029",
  "source": "pragma solidity ^0.4.24;\n\nimport \"./ProductStorage.sol\";\n\n\ncontract ProductStorageState {\n    ProductStorage public _product;\n}",
  "sourcePath": "/Users/jedsada/Documents/development/update-contraact-playground/contracts/ProductStorageState.sol",
  "compiler": {
    "name": "solc",
    "version": "0.4.24+commit.e67f0147.Emscripten.clang"
  },
  "schemaVersion": "2.0.1",
  "updatedAt": "2018-10-01T05:05:25.424Z"
}