{
  "contractName": "Proxy2",
  "abi": [
    {
      "constant": true,
      "inputs": [],
      "name": "_product",
      "outputs": [
        {
          "name": "",
          "type": "address"
        }
      ],
      "payable": false,
      "stateMutability": "view",
      "type": "function"
    },
    {
      "constant": true,
      "inputs": [],
      "name": "_implementation",
      "outputs": [
        {
          "name": "",
          "type": "address"
        }
      ],
      "payable": false,
      "stateMutability": "view",
      "type": "function"
    },
    {
      "constant": true,
      "inputs": [],
      "name": "_storage",
      "outputs": [
        {
          "name": "",
          "type": "address"
        }
      ],
      "payable": false,
      "stateMutability": "view",
      "type": "function"
    },
    {
      "constant": false,
      "inputs": [
        {
          "name": "newOwner",
          "type": "address"
        }
      ],
      "name": "transferOwnership",
      "outputs": [],
      "payable": false,
      "stateMutability": "nonpayable",
      "type": "function"
    },
    {
      "inputs": [
        {
          "name": "product",
          "type": "address"
        },
        {
          "name": "storage_",
          "type": "address"
        }
      ],
      "payable": false,
      "stateMutability": "nonpayable",
      "type": "constructor"
    },
    {
      "payable": true,
      "stateMutability": "payable",
      "type": "fallback"
    },
    {
      "anonymous": false,
      "inputs": [
        {
          "indexed": true,
          "name": "implementation",
          "type": "address"
        }
      ],
      "name": "Upgraded",
      "type": "event"
    },
    {
      "anonymous": false,
      "inputs": [
        {
          "indexed": true,
          "name": "previousOwner",
          "type": "address"
        },
        {
          "indexed": true,
          "name": "newOwner",
          "type": "address"
        }
      ],
      "name": "OwnershipTransferred",
      "type": "event"
    },
    {
      "constant": true,
      "inputs": [],
      "name": "implementation",
      "outputs": [
        {
          "name": "",
          "type": "address"
        }
      ],
      "payable": false,
      "stateMutability": "view",
      "type": "function"
    },
    {
      "constant": false,
      "inputs": [
        {
          "name": "impl",
          "type": "address"
        }
      ],
      "name": "upgradeTo",
      "outputs": [],
      "payable": false,
      "stateMutability": "nonpayable",
      "type": "function"
    }
  ],
  "bytecode": "0x608060405234801561001057600080fd5b5060405160408061058983398101604052805160209091015160018054600160a060020a0319908116331790915560028054600160a060020a0394851690831617905560008054939092169216919091179055610517806100726000396000f3006080604052600436106100775763ffffffff7c01000000000000000000000000000000000000000000000000000000006000350416632fb958fa81146101895780633659cfe6146101c757806359679b0f146101f75780635c60da1b1461020c578063c3fb90d614610221578063f2fde38b14610236575b60006060610083610264565b915073ffffffffffffffffffffffffffffffffffffffff8216151561012f57604080517f08c379a000000000000000000000000000000000000000000000000000000000815260206004820152602760248201527f43616e6e6f742073657420696d706c656d656e746174696f6e20746f2061646460448201527f7265737328302900000000000000000000000000000000000000000000000000606482015290519081900360840190fd5b6000368080601f0160208091040260200160405190810160405280939291908181526020018383808284378201915050505050509050600080825160208401855af43d604051816000823e828015610185578282f35b8282fd5b34801561019557600080fd5b5061019e610280565b6040805173ffffffffffffffffffffffffffffffffffffffff9092168252519081900360200190f35b3480156101d357600080fd5b506101f573ffffffffffffffffffffffffffffffffffffffff6004351661029c565b005b34801561020357600080fd5b5061019e6103df565b34801561021857600080fd5b5061019e610264565b34801561022d57600080fd5b5061019e6103fb565b34801561024257600080fd5b506101f573ffffffffffffffffffffffffffffffffffffffff60043516610417565b60035473ffffffffffffffffffffffffffffffffffffffff1690565b60025473ffffffffffffffffffffffffffffffffffffffff1681565b60015473ffffffffffffffffffffffffffffffffffffffff1633146102c057600080fd5b60035473ffffffffffffffffffffffffffffffffffffffff8281169116141561037057604080517f08c379a000000000000000000000000000000000000000000000000000000000815260206004820152602a60248201527f43616e6e6f74207570677261646520746f207468652073616d6520696d706c6560448201527f6d656e746174696f6e2e00000000000000000000000000000000000000000000606482015290519081900360840190fd5b600380547fffffffffffffffffffffffff00000000000000000000000000000000000000001673ffffffffffffffffffffffffffffffffffffffff83169081179091556040517fbc7cd75a20ee27fd9adebab32041f755214dbc6bffa90cc0225b39da2e5c2d3b90600090a250565b60035473ffffffffffffffffffffffffffffffffffffffff1681565b60005473ffffffffffffffffffffffffffffffffffffffff1681565b60015473ffffffffffffffffffffffffffffffffffffffff16331461043b57600080fd5b73ffffffffffffffffffffffffffffffffffffffff8116151561045d57600080fd5b60015460405173ffffffffffffffffffffffffffffffffffffffff8084169216907f8be0079c531659141344cd1fd0a4f28419497f9722a3daafe3b4186f6b6457e090600090a3600180547fffffffffffffffffffffffff00000000000000000000000000000000000000001673ffffffffffffffffffffffffffffffffffffffff929092169190911790555600a165627a7a72305820d413c120739f47285ca07e92f5fc0cc93c7394660930fbe845114564b4fcf8260029",
  "source": "pragma solidity ^0.4.24;\n\nimport \"./StorageState.sol\";\nimport \"./ProductStorageState.sol\";\nimport \"./Ownable.sol\";\n\n\ncontract Proxy2 is StorageState, Ownable, ProductStorageState {\n    \n    constructor(ProductStorage product, Storage storage_) public {\n        _product = product;\n        _storage = storage_;\n    }\n\n    event Upgraded(address indexed implementation);\n\n    address public _implementation;\n\n    function implementation() public view returns (address) {\n        return _implementation;\n    }\n\n    function upgradeTo(address impl) public onlyOwner {\n        require(\n            _implementation != impl,\n            \"Cannot upgrade to the same implementation.\"\n        );\n        _implementation = impl;\n        emit Upgraded(impl);\n    }\n  \n    function () public payable {\n        address _impl = implementation();\n        require(\n            _impl != address(0),\n            \"Cannot set implementation to address(0)\"\n        );\n        bytes memory data = msg.data;\n\n        assembly {\n            let result := delegatecall(gas, _impl, add(data, 0x20), mload(data), 0, 0)\n            let size := returndatasize\n            let ptr := mload(0x40)\n            returndatacopy(ptr, 0, size)\n            switch result\n            case 0 { revert(ptr, size) }\n            default { return(ptr, size) }\n        }\n    }\n}",
  "sourcePath": "/Users/jedsada/Documents/development/update-contraact-playground/contracts/Proxy2.sol",
  "compiler": {
    "name": "solc",
    "version": "0.4.24+commit.e67f0147.Emscripten.clang"
  },
  "schemaVersion": "2.0.1",
  "updatedAt": "2018-10-01T05:03:29.907Z"
}