{
  "contractName": "Proxy",
  "abi": [
    {
      "constant": true,
      "inputs": [],
      "name": "_implementation",
      "outputs": [
        {
          "name": "",
          "type": "address"
        }
      ],
      "payable": false,
      "stateMutability": "view",
      "type": "function"
    },
    {
      "constant": true,
      "inputs": [],
      "name": "_storage",
      "outputs": [
        {
          "name": "",
          "type": "address"
        }
      ],
      "payable": false,
      "stateMutability": "view",
      "type": "function"
    },
    {
      "constant": false,
      "inputs": [
        {
          "name": "newOwner",
          "type": "address"
        }
      ],
      "name": "transferOwnership",
      "outputs": [],
      "payable": false,
      "stateMutability": "nonpayable",
      "type": "function"
    },
    {
      "inputs": [
        {
          "name": "storage_",
          "type": "address"
        },
        {
          "name": "_owner",
          "type": "address"
        }
      ],
      "payable": false,
      "stateMutability": "nonpayable",
      "type": "constructor"
    },
    {
      "payable": true,
      "stateMutability": "payable",
      "type": "fallback"
    },
    {
      "anonymous": false,
      "inputs": [
        {
          "indexed": true,
          "name": "implementation",
          "type": "address"
        }
      ],
      "name": "Upgraded",
      "type": "event"
    },
    {
      "anonymous": false,
      "inputs": [
        {
          "indexed": true,
          "name": "previousOwner",
          "type": "address"
        },
        {
          "indexed": true,
          "name": "newOwner",
          "type": "address"
        }
      ],
      "name": "OwnershipTransferred",
      "type": "event"
    },
    {
      "constant": true,
      "inputs": [],
      "name": "implementation",
      "outputs": [
        {
          "name": "",
          "type": "address"
        }
      ],
      "payable": false,
      "stateMutability": "view",
      "type": "function"
    },
    {
      "constant": false,
      "inputs": [
        {
          "name": "impl",
          "type": "address"
        }
      ],
      "name": "upgradeTo",
      "outputs": [],
      "payable": false,
      "stateMutability": "nonpayable",
      "type": "function"
    }
  ],
  "bytecode": "0x608060405234801561001057600080fd5b5060405160408061053a833981016040525160018054600160a060020a0319908116331790915560008054600160a060020a03909316929091169190911790556104db8061005f6000396000f30060806040526004361061006c5763ffffffff7c01000000000000000000000000000000000000000000000000000000006000350416633659cfe6811461017e57806359679b0f146101ae5780635c60da1b146101ec578063c3fb90d614610201578063f2fde38b14610216575b60006060610078610244565b915073ffffffffffffffffffffffffffffffffffffffff8216151561012457604080517f08c379a000000000000000000000000000000000000000000000000000000000815260206004820152602760248201527f43616e6e6f742073657420696d706c656d656e746174696f6e20746f2061646460448201527f7265737328302900000000000000000000000000000000000000000000000000606482015290519081900360840190fd5b6000368080601f0160208091040260200160405190810160405280939291908181526020018383808284378201915050505050509050600080825160208401855af43d604051816000823e82801561017a578282f35b8282fd5b34801561018a57600080fd5b506101ac73ffffffffffffffffffffffffffffffffffffffff60043516610260565b005b3480156101ba57600080fd5b506101c36103a3565b6040805173ffffffffffffffffffffffffffffffffffffffff9092168252519081900360200190f35b3480156101f857600080fd5b506101c3610244565b34801561020d57600080fd5b506101c36103bf565b34801561022257600080fd5b506101ac73ffffffffffffffffffffffffffffffffffffffff600435166103db565b60025473ffffffffffffffffffffffffffffffffffffffff1690565b60015473ffffffffffffffffffffffffffffffffffffffff16331461028457600080fd5b60025473ffffffffffffffffffffffffffffffffffffffff8281169116141561033457604080517f08c379a000000000000000000000000000000000000000000000000000000000815260206004820152602a60248201527f43616e6e6f74207570677261646520746f207468652073616d6520696d706c6560448201527f6d656e746174696f6e2e00000000000000000000000000000000000000000000606482015290519081900360840190fd5b600280547fffffffffffffffffffffffff00000000000000000000000000000000000000001673ffffffffffffffffffffffffffffffffffffffff83169081179091556040517fbc7cd75a20ee27fd9adebab32041f755214dbc6bffa90cc0225b39da2e5c2d3b90600090a250565b60025473ffffffffffffffffffffffffffffffffffffffff1681565b60005473ffffffffffffffffffffffffffffffffffffffff1681565b60015473ffffffffffffffffffffffffffffffffffffffff1633146103ff57600080fd5b73ffffffffffffffffffffffffffffffffffffffff8116151561042157600080fd5b60015460405173ffffffffffffffffffffffffffffffffffffffff8084169216907f8be0079c531659141344cd1fd0a4f28419497f9722a3daafe3b4186f6b6457e090600090a3600180547fffffffffffffffffffffffff00000000000000000000000000000000000000001673ffffffffffffffffffffffffffffffffffffffff929092169190911790555600a165627a7a72305820c1ae2b21cdcd83f4284e73d0ca119bccb7631a167ca3e14e7e9b4d2b97e41a550029",
  "source": "pragma solidity ^0.4.24;\n\nimport \"./StorageState.sol\";\nimport \"./Ownable.sol\";\n\n\ncontract Proxy is StorageState, Ownable {\n    \n    constructor(Storage storage_, address _owner) public {\n        _storage = storage_;\n        // _storage.setAddress(\"owner\", _owner);\n    }\n\n    event Upgraded(address indexed implementation);\n\n    address public _implementation;\n\n    function implementation() public view returns (address) {\n        return _implementation;\n    }\n\n    function upgradeTo(address impl) public onlyOwner {\n        require(\n            _implementation != impl,\n            \"Cannot upgrade to the same implementation.\"\n        );\n        _implementation = impl;\n        emit Upgraded(impl);\n    }\n  \n    function () public payable {\n        address _impl = implementation();\n        require(\n            _impl != address(0),\n            \"Cannot set implementation to address(0)\"\n        );\n        bytes memory data = msg.data;\n\n        assembly {\n            let result := delegatecall(gas, _impl, add(data, 0x20), mload(data), 0, 0)\n            let size := returndatasize\n            let ptr := mload(0x40)\n            returndatacopy(ptr, 0, size)\n            switch result\n            case 0 { revert(ptr, size) }\n            default { return(ptr, size) }\n        }\n    }\n}",
  "sourcePath": "/Users/jedsada/Documents/development/update-contraact-playground/contracts/Proxy.sol",
  "compiler": {
    "name": "solc",
    "version": "0.4.24+commit.e67f0147.Emscripten.clang"
  },
  "schemaVersion": "2.0.1",
  "updatedAt": "2018-09-30T15:17:20.091Z"
}