{
  "contractName": "Storage",
  "abi": [
    {
      "constant": true,
      "inputs": [
        {
          "name": "",
          "type": "uint256"
        }
      ],
      "name": "users",
      "outputs": [
        {
          "name": "username",
          "type": "string"
        },
        {
          "name": "myAddress",
          "type": "address"
        }
      ],
      "payable": false,
      "stateMutability": "view",
      "type": "function"
    },
    {
      "constant": false,
      "inputs": [
        {
          "name": "username",
          "type": "string"
        },
        {
          "name": "myAddress",
          "type": "address"
        }
      ],
      "name": "setUser",
      "outputs": [],
      "payable": false,
      "stateMutability": "nonpayable",
      "type": "function"
    },
    {
      "constant": true,
      "inputs": [
        {
          "name": "index",
          "type": "uint256"
        }
      ],
      "name": "getUser",
      "outputs": [
        {
          "name": "username",
          "type": "string"
        },
        {
          "name": "myAddress",
          "type": "address"
        }
      ],
      "payable": false,
      "stateMutability": "view",
      "type": "function"
    },
    {
      "constant": true,
      "inputs": [],
      "name": "getCountUser",
      "outputs": [
        {
          "name": "",
          "type": "uint256"
        }
      ],
      "payable": false,
      "stateMutability": "view",
      "type": "function"
    }
  ],
  "bytecode": "0x608060405234801561001057600080fd5b5061052f806100206000396000f3006080604052600436106100615763ffffffff7c0100000000000000000000000000000000000000000000000000000000600035041663094a9b008114610066578063365b98b21461008d5780633b891d8514610150578063b0467deb146101c3575b600080fd5b34801561007257600080fd5b5061007b6101db565b60408051918252519081900360200190f35b34801561009957600080fd5b506100a56004356101e2565b60405180806020018373ffffffffffffffffffffffffffffffffffffffff1673ffffffffffffffffffffffffffffffffffffffff168152602001828103825284818151815260200191508051906020019080838360005b838110156101145781810151838201526020016100fc565b50505050905090810190601f1680156101415780820380516001836020036101000a031916815260200191505b50935050505060405180910390f35b34801561015c57600080fd5b506040805160206004803580820135601f81018490048402850184019095528484526101c19436949293602493928401919081908401838280828437509497505050923573ffffffffffffffffffffffffffffffffffffffff1693506102ac92505050565b005b3480156101cf57600080fd5b506100a5600435610377565b6000545b90565b60008054829081106101f057fe5b60009182526020918290206002918202018054604080516001831615610100026000190190921693909304601f8101859004850282018501909352828152909350918391908301828280156102865780601f1061025b57610100808354040283529160200191610286565b820191906000526020600020905b81548152906001019060200180831161026957829003601f168201915b5050506001909301549192505073ffffffffffffffffffffffffffffffffffffffff1682565b6040805180820190915282815273ffffffffffffffffffffffffffffffffffffffff821660208083019190915260008054600181018083559180528351805192949360029092027f290decd9548b62a8d60345a988386fc84ba6bc95484008f6362f93160ef3e5630192610323928492019061046b565b5060209190910151600190910180547fffffffffffffffffffffffff00000000000000000000000000000000000000001673ffffffffffffffffffffffffffffffffffffffff909216919091179055505050565b60606000808381548110151561038957fe5b90600052602060002090600202016000016000848154811015156103a957fe5b600091825260209182902060029182020160019081015484546040805161010094831615949094026000190190911693909304601f810185900485028301850190935282825273ffffffffffffffffffffffffffffffffffffffff16929091849183018282801561045b5780601f106104305761010080835404028352916020019161045b565b820191906000526020600020905b81548152906001019060200180831161043e57829003601f168201915b5050505050915091509150915091565b828054600181600116156101000203166002900490600052602060002090601f016020900481019282601f106104ac57805160ff19168380011785556104d9565b828001600101855582156104d9579182015b828111156104d95782518255916020019190600101906104be565b506104e59291506104e9565b5090565b6101df91905b808211156104e557600081556001016104ef5600a165627a7a72305820e4564577bbb5867d47c17ceb509dfc484998ddcebbbde8a2100e8f218e82bcf90029",
  "source": "pragma solidity ^0.4.24;\n\n\ncontract Storage {\n\n    struct User {\n        string username;\n        address myAddress;\n    }\n\n    User[] public users;\n\n    function setUser(string username, address myAddress) public {\n        users.push(User(username, myAddress));\n    }\n\n    function getUser(uint index) public view returns (string username, address myAddress) {\n        return (users[index].username, users[index].myAddress);\n    }\n\n    function getCountUser() public view returns (uint) {\n        return users.length;\n    }\n}",
  "sourcePath": "/Users/jedsada/Documents/development/update-contraact-playground/contracts/Storage.sol",
  "compiler": {
    "name": "solc",
    "version": "0.4.24+commit.e67f0147.Emscripten.clang"
  },
  "schemaVersion": "2.0.1",
  "updatedAt": "2018-09-30T15:17:20.093Z"
}