{
  "contractName": "StorageState",
  "abi": [
    {
      "constant": true,
      "inputs": [],
      "name": "_storage",
      "outputs": [
        {
          "name": "",
          "type": "address"
        }
      ],
      "payable": false,
      "stateMutability": "view",
      "type": "function"
    }
  ],
  "bytecode": "0x608060405234801561001057600080fd5b5060c68061001f6000396000f300608060405260043610603e5763ffffffff7c0100000000000000000000000000000000000000000000000000000000600035041663c3fb90d681146043575b600080fd5b348015604e57600080fd5b506055607e565b6040805173ffffffffffffffffffffffffffffffffffffffff9092168252519081900360200190f35b60005473ffffffffffffffffffffffffffffffffffffffff16815600a165627a7a723058205cb5d57c1f50812788b8ac70cf3aa9594819f560d870a664a16f6239d49866bb0029",
  "source": "pragma solidity ^0.4.24;\n\nimport \"./Storage.sol\";\n\n\ncontract StorageState {\n    Storage public _storage;\n}",
  "sourcePath": "/Users/jedsada/Documents/development/update-contraact-playground/contracts/StorageState.sol",
  "compiler": {
    "name": "solc",
    "version": "0.4.24+commit.e67f0147.Emscripten.clang"
  },
  "schemaVersion": "2.0.1",
  "updatedAt": "2018-09-30T15:17:20.094Z"
}