{
  "contractName": "User",
  "abi": [
    {
      "constant": true,
      "inputs": [],
      "name": "_storage",
      "outputs": [
        {
          "name": "",
          "type": "address"
        }
      ],
      "payable": false,
      "stateMutability": "view",
      "type": "function"
    },
    {
      "constant": false,
      "inputs": [
        {
          "name": "username",
          "type": "string"
        }
      ],
      "name": "register",
      "outputs": [],
      "payable": false,
      "stateMutability": "nonpayable",
      "type": "function"
    }
  ],
  "bytecode": "0x608060405234801561001057600080fd5b5061022b806100206000396000f30060806040526004361061004b5763ffffffff7c0100000000000000000000000000000000000000000000000000000000600035041663c3fb90d68114610050578063f2c298be1461008e575b600080fd5b34801561005c57600080fd5b506100656100e9565b6040805173ffffffffffffffffffffffffffffffffffffffff9092168252519081900360200190f35b34801561009a57600080fd5b506040805160206004803580820135601f81018490048402850184019095528484526100e79436949293602493928401919081908401838280828437509497506101059650505050505050565b005b60005473ffffffffffffffffffffffffffffffffffffffff1681565b60008054604080517f3b891d8500000000000000000000000000000000000000000000000000000000815233602482018190526004820192835285516044830152855173ffffffffffffffffffffffffffffffffffffffff90941694633b891d859487949293839260649091019160208701918190849084905b8381101561019757818101518382015260200161017f565b50505050905090810190601f1680156101c45780820380516001836020036101000a031916815260200191505b509350505050600060405180830381600087803b1580156101e457600080fd5b505af11580156101f8573d6000803e3d6000fd5b50505050505600a165627a7a72305820e6753b6dcb611706c51b52c03ae179a0990835878b2e3889fac2de04a648a5cd0029",
  "source": "pragma solidity ^0.4.24;\n\nimport \"./StorageState.sol\";\n\n\ncontract User is StorageState {\n\n    function register(string username) public {\n        _storage.setUser(username, msg.sender);\n    }\n}",
  "sourcePath": "/Users/jedsada/Documents/development/test-update/contracts/User.sol",
  "compiler": {
    "name": "solc",
    "version": "0.4.24+commit.e67f0147.Emscripten.clang"
  },
  "schemaVersion": "2.0.1",
  "updatedAt": "2018-09-30T08:11:10.270Z"
}