{
  "contractName": "UserV5",
  "abi": [
    {
      "constant": true,
      "inputs": [],
      "name": "_product",
      "outputs": [
        {
          "name": "",
          "type": "address"
        }
      ],
      "payable": false,
      "stateMutability": "view",
      "type": "function"
    },
    {
      "constant": true,
      "inputs": [],
      "name": "_storage",
      "outputs": [
        {
          "name": "",
          "type": "address"
        }
      ],
      "payable": false,
      "stateMutability": "view",
      "type": "function"
    },
    {
      "constant": false,
      "inputs": [
        {
          "name": "newOwner",
          "type": "address"
        }
      ],
      "name": "transferOwnership",
      "outputs": [],
      "payable": false,
      "stateMutability": "nonpayable",
      "type": "function"
    },
    {
      "anonymous": false,
      "inputs": [
        {
          "indexed": true,
          "name": "previousOwner",
          "type": "address"
        },
        {
          "indexed": true,
          "name": "newOwner",
          "type": "address"
        }
      ],
      "name": "OwnershipTransferred",
      "type": "event"
    },
    {
      "constant": false,
      "inputs": [
        {
          "name": "username",
          "type": "string"
        }
      ],
      "name": "register",
      "outputs": [],
      "payable": false,
      "stateMutability": "nonpayable",
      "type": "function"
    },
    {
      "constant": true,
      "inputs": [
        {
          "name": "index",
          "type": "uint256"
        }
      ],
      "name": "getUsers",
      "outputs": [
        {
          "name": "username",
          "type": "string"
        },
        {
          "name": "myAddress",
          "type": "address"
        }
      ],
      "payable": false,
      "stateMutability": "view",
      "type": "function"
    },
    {
      "constant": true,
      "inputs": [],
      "name": "getCountUser",
      "outputs": [
        {
          "name": "countUser",
          "type": "uint256"
        }
      ],
      "payable": false,
      "stateMutability": "view",
      "type": "function"
    },
    {
      "constant": false,
      "inputs": [
        {
          "name": "productName",
          "type": "string"
        },
        {
          "name": "price",
          "type": "uint256"
        }
      ],
      "name": "saveProduct",
      "outputs": [],
      "payable": false,
      "stateMutability": "nonpayable",
      "type": "function"
    },
    {
      "constant": true,
      "inputs": [
        {
          "name": "index",
          "type": "uint256"
        }
      ],
      "name": "getProduct",
      "outputs": [
        {
          "name": "name",
          "type": "string"
        },
        {
          "name": "price",
          "type": "uint256"
        }
      ],
      "payable": false,
      "stateMutability": "view",
      "type": "function"
    }
  ],
  "bytecode": "0x608060405260018054600160a060020a031916331790556108b1806100256000396000f30060806040526004361061008d5763ffffffff7c0100000000000000000000000000000000000000000000000000000000600035041663094a9b0081146100925780632fb958fa146100b95780635d73ab9a146100f75780638695985f146101ba578063b9db15b414610217578063c3fb90d614610271578063f2c298be14610286578063f2fde38b146102df575b600080fd5b34801561009e57600080fd5b506100a761030d565b60408051918252519081900360200190f35b3480156100c557600080fd5b506100ce6103c5565b6040805173ffffffffffffffffffffffffffffffffffffffff9092168252519081900360200190f35b34801561010357600080fd5b5061010f6004356103e1565b60405180806020018373ffffffffffffffffffffffffffffffffffffffff1673ffffffffffffffffffffffffffffffffffffffff168152602001828103825284818151815260200191508051906020019080838360005b8381101561017e578181015183820152602001610166565b50505050905090810190601f1680156101ab5780820380516001836020036101000a031916815260200191505b50935050505060405180910390f35b3480156101c657600080fd5b506040805160206004803580820135601f810184900484028501840190955284845261021594369492936024939284019190819084018382808284375094975050933594506105099350505050565b005b34801561022357600080fd5b5061022f6004356105ff565b6040518080602001838152602001828103825284818151815260200191508051906020019080838360008381101561017e578181015183820152602001610166565b34801561027d57600080fd5b506100ce610677565b34801561029257600080fd5b506040805160206004803580820135601f81018490048402850184019095528484526102159436949293602493928401919081908401838280828437509497506106939650505050505050565b3480156102eb57600080fd5b5061021573ffffffffffffffffffffffffffffffffffffffff600435166107b1565b60008060009054906101000a900473ffffffffffffffffffffffffffffffffffffffff1673ffffffffffffffffffffffffffffffffffffffff1663094a9b006040518163ffffffff167c0100000000000000000000000000000000000000000000000000000000028152600401602060405180830381600087803b15801561039457600080fd5b505af11580156103a8573d6000803e3d6000fd5b505050506040513d60208110156103be57600080fd5b5051905090565b60025473ffffffffffffffffffffffffffffffffffffffff1681565b60008054604080517fb0467deb0000000000000000000000000000000000000000000000000000000081526004810185905290516060939273ffffffffffffffffffffffffffffffffffffffff169163b0467deb916024808301928692919082900301818387803b15801561045557600080fd5b505af1158015610469573d6000803e3d6000fd5b505050506040513d6000823e601f3d9081017fffffffffffffffffffffffffffffffffffffffffffffffffffffffffffffffe016820160409081528110156104b057600080fd5b8101908080516401000000008111156104c857600080fd5b820160208101848111156104db57600080fd5b81516401000000008111828201871017156104f557600080fd5b505060209091015190945092505050915091565b600254604080517fd3af52dc000000000000000000000000000000000000000000000000000000008152602481018490526004810191825284516044820152845173ffffffffffffffffffffffffffffffffffffffff9093169263d3af52dc9286928692829160640190602086019080838360005b8381101561059657818101518382015260200161057e565b50505050905090810190601f1680156105c35780820380516001836020036101000a031916815260200191505b509350505050600060405180830381600087803b1580156105e357600080fd5b505af11580156105f7573d6000803e3d6000fd5b505050505050565b600254604080517fb9db15b400000000000000000000000000000000000000000000000000000000815260048101849052905160609260009273ffffffffffffffffffffffffffffffffffffffff9091169163b9db15b491602480820192869290919082900301818387803b15801561045557600080fd5b60005473ffffffffffffffffffffffffffffffffffffffff1681565b60015473ffffffffffffffffffffffffffffffffffffffff1633146106b757600080fd5b60008054604080517f3b891d8500000000000000000000000000000000000000000000000000000000815233602482018190526004820192835285516044830152855173ffffffffffffffffffffffffffffffffffffffff90941694633b891d859487949293839260649091019160208701918190849084905b83811015610749578181015183820152602001610731565b50505050905090810190601f1680156107765780820380516001836020036101000a031916815260200191505b509350505050600060405180830381600087803b15801561079657600080fd5b505af11580156107aa573d6000803e3d6000fd5b5050505050565b60015473ffffffffffffffffffffffffffffffffffffffff1633146107d557600080fd5b73ffffffffffffffffffffffffffffffffffffffff811615156107f757600080fd5b60015460405173ffffffffffffffffffffffffffffffffffffffff8084169216907f8be0079c531659141344cd1fd0a4f28419497f9722a3daafe3b4186f6b6457e090600090a3600180547fffffffffffffffffffffffff00000000000000000000000000000000000000001673ffffffffffffffffffffffffffffffffffffffff929092169190911790555600a165627a7a723058208052db285691436afac58624a6be008db08699af781ec545beeee55fbf0c15730029",
  "source": "pragma solidity ^0.4.24;\n\nimport \"./StorageState.sol\";\nimport \"./ProductStorageState.sol\";\nimport \"./Ownable.sol\";\n\n\ncontract UserV5 is StorageState, Ownable, ProductStorageState {\n\n    function register(string username) public onlyOwner {\n        _storage.setUser(username, msg.sender);\n    }\n\n    function getUsers(uint index) public view returns (string username, address myAddress) {\n        return _storage.getUser(index);\n    }\n\n    function getCountUser() public view returns (uint countUser) {\n        return _storage.getCountUser();\n    }\n\n    function saveProduct(string productName, uint price) public {\n        _product.setProduct(productName, price);\n    }\n\n    function getProduct(uint index) public view returns(string name, uint price) {\n        return _product.getProduct(index);\n    }\n}",
  "sourcePath": "/Users/jedsada/Documents/development/update-contraact-playground/contracts/UserV5.sol",
  "compiler": {
    "name": "solc",
    "version": "0.4.24+commit.e67f0147.Emscripten.clang"
  },
  "schemaVersion": "2.0.1",
  "updatedAt": "2018-10-01T05:06:01.345Z"
}