{
  "contractName": "UserV3",
  "abi": [
    {
      "constant": true,
      "inputs": [],
      "name": "_storage",
      "outputs": [
        {
          "name": "",
          "type": "address"
        }
      ],
      "payable": false,
      "stateMutability": "view",
      "type": "function"
    },
    {
      "constant": false,
      "inputs": [
        {
          "name": "newOwner",
          "type": "address"
        }
      ],
      "name": "transferOwnership",
      "outputs": [],
      "payable": false,
      "stateMutability": "nonpayable",
      "type": "function"
    },
    {
      "anonymous": false,
      "inputs": [
        {
          "indexed": true,
          "name": "previousOwner",
          "type": "address"
        },
        {
          "indexed": true,
          "name": "newOwner",
          "type": "address"
        }
      ],
      "name": "OwnershipTransferred",
      "type": "event"
    },
    {
      "constant": false,
      "inputs": [
        {
          "name": "username",
          "type": "string"
        }
      ],
      "name": "register",
      "outputs": [],
      "payable": false,
      "stateMutability": "nonpayable",
      "type": "function"
    },
    {
      "constant": true,
      "inputs": [
        {
          "name": "index",
          "type": "uint256"
        }
      ],
      "name": "getUsers",
      "outputs": [
        {
          "name": "username",
          "type": "string"
        },
        {
          "name": "myAddress",
          "type": "address"
        }
      ],
      "payable": false,
      "stateMutability": "view",
      "type": "function"
    },
    {
      "constant": true,
      "inputs": [],
      "name": "getCountUser",
      "outputs": [
        {
          "name": "countUser",
          "type": "uint256"
        }
      ],
      "payable": false,
      "stateMutability": "view",
      "type": "function"
    }
  ],
  "bytecode": "0x608060405260018054600160a060020a0319163317905561063c806100256000396000f30060806040526004361061006c5763ffffffff7c0100000000000000000000000000000000000000000000000000000000600035041663094a9b0081146100715780635d73ab9a14610098578063c3fb90d61461015b578063f2c298be14610199578063f2fde38b146101f4575b600080fd5b34801561007d57600080fd5b50610086610222565b60408051918252519081900360200190f35b3480156100a457600080fd5b506100b06004356102da565b60405180806020018373ffffffffffffffffffffffffffffffffffffffff1673ffffffffffffffffffffffffffffffffffffffff168152602001828103825284818151815260200191508051906020019080838360005b8381101561011f578181015183820152602001610107565b50505050905090810190601f16801561014c5780820380516001836020036101000a031916815260200191505b50935050505060405180910390f35b34801561016757600080fd5b50610170610402565b6040805173ffffffffffffffffffffffffffffffffffffffff9092168252519081900360200190f35b3480156101a557600080fd5b506040805160206004803580820135601f81018490048402850184019095528484526101f294369492936024939284019190819084018382808284375094975061041e9650505050505050565b005b34801561020057600080fd5b506101f273ffffffffffffffffffffffffffffffffffffffff6004351661053c565b60008060009054906101000a900473ffffffffffffffffffffffffffffffffffffffff1673ffffffffffffffffffffffffffffffffffffffff1663094a9b006040518163ffffffff167c0100000000000000000000000000000000000000000000000000000000028152600401602060405180830381600087803b1580156102a957600080fd5b505af11580156102bd573d6000803e3d6000fd5b505050506040513d60208110156102d357600080fd5b5051905090565b60008054604080517fb0467deb0000000000000000000000000000000000000000000000000000000081526004810185905290516060939273ffffffffffffffffffffffffffffffffffffffff169163b0467deb916024808301928692919082900301818387803b15801561034e57600080fd5b505af1158015610362573d6000803e3d6000fd5b505050506040513d6000823e601f3d9081017fffffffffffffffffffffffffffffffffffffffffffffffffffffffffffffffe016820160409081528110156103a957600080fd5b8101908080516401000000008111156103c157600080fd5b820160208101848111156103d457600080fd5b81516401000000008111828201871017156103ee57600080fd5b505060209091015190945092505050915091565b60005473ffffffffffffffffffffffffffffffffffffffff1681565b60015473ffffffffffffffffffffffffffffffffffffffff16331461044257600080fd5b60008054604080517f3b891d8500000000000000000000000000000000000000000000000000000000815233602482018190526004820192835285516044830152855173ffffffffffffffffffffffffffffffffffffffff90941694633b891d859487949293839260649091019160208701918190849084905b838110156104d45781810151838201526020016104bc565b50505050905090810190601f1680156105015780820380516001836020036101000a031916815260200191505b509350505050600060405180830381600087803b15801561052157600080fd5b505af1158015610535573d6000803e3d6000fd5b5050505050565b60015473ffffffffffffffffffffffffffffffffffffffff16331461056057600080fd5b73ffffffffffffffffffffffffffffffffffffffff8116151561058257600080fd5b60015460405173ffffffffffffffffffffffffffffffffffffffff8084169216907f8be0079c531659141344cd1fd0a4f28419497f9722a3daafe3b4186f6b6457e090600090a3600180547fffffffffffffffffffffffff00000000000000000000000000000000000000001673ffffffffffffffffffffffffffffffffffffffff929092169190911790555600a165627a7a7230582020b0d9138cf1a1d3eba88be6230aa2e7cb675f71e0b8d08163fb8724610004310029",
  "source": "pragma solidity ^0.4.24;\n\nimport \"./StorageState.sol\";\nimport \"./Ownable.sol\";\n\n\ncontract UserV3 is StorageState, Ownable {\n\n    function register(string username) public onlyOwner {\n        _storage.setUser(username, msg.sender);\n    }\n\n    function getUsers(uint index) public view returns (string username, address myAddress) {\n        return _storage.getUser(index);\n    }\n\n    function getCountUser() public view returns (uint countUser) {\n        return _storage.getCountUser();\n    }\n}",
  "sourcePath": "/Users/jedsada/Documents/development/update-contraact-playground/contracts/UserV3.sol",
  "compiler": {
    "name": "solc",
    "version": "0.4.24+commit.e67f0147.Emscripten.clang"
  },
  "schemaVersion": "2.0.1",
  "updatedAt": "2018-09-30T15:17:56.404Z"
}