{
  "contractName": "UserV4",
  "abi": [
    {
      "constant": true,
      "inputs": [],
      "name": "_product",
      "outputs": [
        {
          "name": "",
          "type": "address"
        }
      ],
      "payable": false,
      "stateMutability": "view",
      "type": "function"
    },
    {
      "constant": true,
      "inputs": [],
      "name": "_storage",
      "outputs": [
        {
          "name": "",
          "type": "address"
        }
      ],
      "payable": false,
      "stateMutability": "view",
      "type": "function"
    },
    {
      "constant": false,
      "inputs": [
        {
          "name": "newOwner",
          "type": "address"
        }
      ],
      "name": "transferOwnership",
      "outputs": [],
      "payable": false,
      "stateMutability": "nonpayable",
      "type": "function"
    },
    {
      "anonymous": false,
      "inputs": [
        {
          "indexed": true,
          "name": "previousOwner",
          "type": "address"
        },
        {
          "indexed": true,
          "name": "newOwner",
          "type": "address"
        }
      ],
      "name": "OwnershipTransferred",
      "type": "event"
    },
    {
      "constant": false,
      "inputs": [
        {
          "name": "username",
          "type": "string"
        }
      ],
      "name": "register",
      "outputs": [],
      "payable": false,
      "stateMutability": "nonpayable",
      "type": "function"
    },
    {
      "constant": true,
      "inputs": [
        {
          "name": "index",
          "type": "uint256"
        }
      ],
      "name": "getUsers",
      "outputs": [
        {
          "name": "username",
          "type": "string"
        },
        {
          "name": "myAddress",
          "type": "address"
        }
      ],
      "payable": false,
      "stateMutability": "view",
      "type": "function"
    },
    {
      "constant": true,
      "inputs": [],
      "name": "getCountUser",
      "outputs": [
        {
          "name": "countUser",
          "type": "uint256"
        }
      ],
      "payable": false,
      "stateMutability": "view",
      "type": "function"
    },
    {
      "constant": false,
      "inputs": [],
      "name": "saveProduct",
      "outputs": [],
      "payable": false,
      "stateMutability": "nonpayable",
      "type": "function"
    }
  ],
  "bytecode": "0x608060405260018054600160a060020a03191633179055610759806100256000396000f3006080604052600436106100825763ffffffff7c0100000000000000000000000000000000000000000000000000000000600035041663094a9b0081146100875780632fb958fa146100ae5780635d73ab9a146100ec578063bde889cd146101af578063c3fb90d6146101c6578063f2c298be146101db578063f2fde38b14610234575b600080fd5b34801561009357600080fd5b5061009c610262565b60408051918252519081900360200190f35b3480156100ba57600080fd5b506100c361031a565b6040805173ffffffffffffffffffffffffffffffffffffffff9092168252519081900360200190f35b3480156100f857600080fd5b50610104600435610336565b60405180806020018373ffffffffffffffffffffffffffffffffffffffff1673ffffffffffffffffffffffffffffffffffffffff168152602001828103825284818151815260200191508051906020019080838360005b8381101561017357818101518382015260200161015b565b50505050905090810190601f1680156101a05780820380516001836020036101000a031916815260200191505b50935050505060405180910390f35b3480156101bb57600080fd5b506101c461045e565b005b3480156101d257600080fd5b506100c361051f565b3480156101e757600080fd5b506040805160206004803580820135601f81018490048402850184019095528484526101c494369492936024939284019190819084018382808284375094975061053b9650505050505050565b34801561024057600080fd5b506101c473ffffffffffffffffffffffffffffffffffffffff60043516610659565b60008060009054906101000a900473ffffffffffffffffffffffffffffffffffffffff1673ffffffffffffffffffffffffffffffffffffffff1663094a9b006040518163ffffffff167c0100000000000000000000000000000000000000000000000000000000028152600401602060405180830381600087803b1580156102e957600080fd5b505af11580156102fd573d6000803e3d6000fd5b505050506040513d602081101561031357600080fd5b5051905090565b60025473ffffffffffffffffffffffffffffffffffffffff1681565b60008054604080517fb0467deb0000000000000000000000000000000000000000000000000000000081526004810185905290516060939273ffffffffffffffffffffffffffffffffffffffff169163b0467deb916024808301928692919082900301818387803b1580156103aa57600080fd5b505af11580156103be573d6000803e3d6000fd5b505050506040513d6000823e601f3d9081017fffffffffffffffffffffffffffffffffffffffffffffffffffffffffffffffe0168201604090815281101561040557600080fd5b81019080805164010000000081111561041d57600080fd5b8201602081018481111561043057600080fd5b815164010000000081118282018710171561044a57600080fd5b505060209091015190945092505050915091565b600254604080517fd3af52dc000000000000000000000000000000000000000000000000000000008152606460248201819052600480830184905260448301527f6e616d650000000000000000000000000000000000000000000000000000000090820152905173ffffffffffffffffffffffffffffffffffffffff9092169163d3af52dc9160848082019260009290919082900301818387803b15801561050557600080fd5b505af1158015610519573d6000803e3d6000fd5b50505050565b60005473ffffffffffffffffffffffffffffffffffffffff1681565b60015473ffffffffffffffffffffffffffffffffffffffff16331461055f57600080fd5b60008054604080517f3b891d8500000000000000000000000000000000000000000000000000000000815233602482018190526004820192835285516044830152855173ffffffffffffffffffffffffffffffffffffffff90941694633b891d859487949293839260649091019160208701918190849084905b838110156105f15781810151838201526020016105d9565b50505050905090810190601f16801561061e5780820380516001836020036101000a031916815260200191505b509350505050600060405180830381600087803b15801561063e57600080fd5b505af1158015610652573d6000803e3d6000fd5b5050505050565b60015473ffffffffffffffffffffffffffffffffffffffff16331461067d57600080fd5b73ffffffffffffffffffffffffffffffffffffffff8116151561069f57600080fd5b60015460405173ffffffffffffffffffffffffffffffffffffffff8084169216907f8be0079c531659141344cd1fd0a4f28419497f9722a3daafe3b4186f6b6457e090600090a3600180547fffffffffffffffffffffffff00000000000000000000000000000000000000001673ffffffffffffffffffffffffffffffffffffffff929092169190911790555600a165627a7a72305820bed46074207143d33fc8aea5724e06711c9a0fed43bc6b0f17b61e922ecd7fd80029",
  "source": "pragma solidity ^0.4.24;\n\nimport \"./StorageState.sol\";\nimport \"./ProductStorageState.sol\";\nimport \"./Ownable.sol\";\n\n\ncontract UserV4 is StorageState, Ownable, ProductStorageState {\n\n    function register(string username) public onlyOwner {\n        _storage.setUser(username, msg.sender);\n    }\n\n    function getUsers(uint index) public view returns (string username, address myAddress) {\n        return _storage.getUser(index);\n    }\n\n    function getCountUser() public view returns (uint countUser) {\n        return _storage.getCountUser();\n    }\n\n    function saveProduct() public {\n        _product.setProduct(\"name\", 100);\n    }\n}",
  "sourcePath": "/Users/jedsada/Documents/development/update-contraact-playground/contracts/UserV4.sol",
  "compiler": {
    "name": "solc",
    "version": "0.4.24+commit.e67f0147.Emscripten.clang"
  },
  "schemaVersion": "2.0.1",
  "updatedAt": "2018-10-01T05:05:25.426Z"
}