{
  "contractName": "UserV2",
  "abi": [
    {
      "constant": true,
      "inputs": [],
      "name": "_storage",
      "outputs": [
        {
          "name": "",
          "type": "address"
        }
      ],
      "payable": false,
      "stateMutability": "view",
      "type": "function"
    },
    {
      "constant": false,
      "inputs": [
        {
          "name": "username",
          "type": "string"
        }
      ],
      "name": "register",
      "outputs": [],
      "payable": false,
      "stateMutability": "nonpayable",
      "type": "function"
    },
    {
      "constant": true,
      "inputs": [
        {
          "name": "index",
          "type": "uint256"
        }
      ],
      "name": "getUsers",
      "outputs": [
        {
          "name": "username",
          "type": "string"
        },
        {
          "name": "myAddress",
          "type": "address"
        }
      ],
      "payable": false,
      "stateMutability": "view",
      "type": "function"
    },
    {
      "constant": true,
      "inputs": [],
      "name": "getCountUser",
      "outputs": [
        {
          "name": "countUser",
          "type": "uint256"
        }
      ],
      "payable": false,
      "stateMutability": "view",
      "type": "function"
    }
  ],
  "bytecode": "0x608060405234801561001057600080fd5b5061050b806100206000396000f3006080604052600436106100615763ffffffff7c0100000000000000000000000000000000000000000000000000000000600035041663094a9b0081146100665780635d73ab9a1461008d578063c3fb90d614610150578063f2c298be1461018e575b600080fd5b34801561007257600080fd5b5061007b6101e9565b60408051918252519081900360200190f35b34801561009957600080fd5b506100a56004356102a1565b60405180806020018373ffffffffffffffffffffffffffffffffffffffff1673ffffffffffffffffffffffffffffffffffffffff168152602001828103825284818151815260200191508051906020019080838360005b838110156101145781810151838201526020016100fc565b50505050905090810190601f1680156101415780820380516001836020036101000a031916815260200191505b50935050505060405180910390f35b34801561015c57600080fd5b506101656103c9565b6040805173ffffffffffffffffffffffffffffffffffffffff9092168252519081900360200190f35b34801561019a57600080fd5b506040805160206004803580820135601f81018490048402850184019095528484526101e79436949293602493928401919081908401838280828437509497506103e59650505050505050565b005b60008060009054906101000a900473ffffffffffffffffffffffffffffffffffffffff1673ffffffffffffffffffffffffffffffffffffffff1663094a9b006040518163ffffffff167c0100000000000000000000000000000000000000000000000000000000028152600401602060405180830381600087803b15801561027057600080fd5b505af1158015610284573d6000803e3d6000fd5b505050506040513d602081101561029a57600080fd5b5051905090565b60008054604080517fb0467deb0000000000000000000000000000000000000000000000000000000081526004810185905290516060939273ffffffffffffffffffffffffffffffffffffffff169163b0467deb916024808301928692919082900301818387803b15801561031557600080fd5b505af1158015610329573d6000803e3d6000fd5b505050506040513d6000823e601f3d9081017fffffffffffffffffffffffffffffffffffffffffffffffffffffffffffffffe0168201604090815281101561037057600080fd5b81019080805164010000000081111561038857600080fd5b8201602081018481111561039b57600080fd5b81516401000000008111828201871017156103b557600080fd5b505060209091015190945092505050915091565b60005473ffffffffffffffffffffffffffffffffffffffff1681565b60008054604080517f3b891d8500000000000000000000000000000000000000000000000000000000815233602482018190526004820192835285516044830152855173ffffffffffffffffffffffffffffffffffffffff90941694633b891d859487949293839260649091019160208701918190849084905b8381101561047757818101518382015260200161045f565b50505050905090810190601f1680156104a45780820380516001836020036101000a031916815260200191505b509350505050600060405180830381600087803b1580156104c457600080fd5b505af11580156104d8573d6000803e3d6000fd5b50505050505600a165627a7a7230582057416359261b24d0ea90729ad837babe5246ddb091775732ceb030c7a6f41b460029",
  "source": "pragma solidity ^0.4.24;\n\nimport \"./StorageState.sol\";\n\n\ncontract UserV2 is StorageState {\n\n    struct Product {\n        \n    }\n\n    function register(string username) public {\n        _storage.setUser(username, msg.sender);\n    }\n\n    function getUsers(uint index) public view returns (string username, address myAddress) {\n        return _storage.getUser(index);\n    }\n\n    function getCountUser() public view returns (uint countUser) {\n        return _storage.getCountUser();\n    }\n}",
  "sourcePath": "/Users/jedsada/Documents/development/update-contraact-playground/contracts/UserV2.sol",
  "compiler": {
    "name": "solc",
    "version": "0.4.24+commit.e67f0147.Emscripten.clang"
  },
  "schemaVersion": "2.0.1",
  "updatedAt": "2018-10-01T04:38:25.012Z"
}